:0200000066296F
:06000600000000000800EC
:10000C000F3083120313FC004730FD00FD0B0C284E
:0A001C00FC0B0C2800000000080097
:0E002600213083120313FD00FD0B1728080084
:1000340083120313C01B2028881321288817401B10
:100044002528081326280817C01A2A2888122B28BE
:100054008816401A2F280812302808163818342811
:10006400071435280710871403208710C0193C286B
:1000740088133D2888174019412808134228081777
:10008400C018462888124728881640184B2808129A
:100094004C280816381850280714512807108714BC
:1000A40003208710381C58280620592813200800DC
:1000B4000E3083120313FD00FD0B5E2800000800C0
:1000C4008312031338103F08C0001A2038140800A4
:0E00D400831203133A088A00390882000800DC
:1000E200831203139F01C0309F042009F00070089F
:1000F20083169F051F179F1783123B08F000F00D10
:100102007010F00D7010F00D701070089F041F1425
:100112005A201F151F1D8F2800008B281F101E0834
:10012200F100F00183161E08F0040030F10408000B
:10013200AB28803083120313BB00BE28C030BB0043
:10014200BE289430BB00BE28D430BB00BE2880300D
:10015200BB00BE28831203133B08013A03199A28F5
:100162003B08023A03199F283B08033A0319A228C5
:100172003B08043A0319A528A8283C03F0003B08D1
:10018200F0077008BB007008C0001A203810BE01CA
:100192003E083D07840000080319D7283E083D07A2
:1001A20084000008BF006220BE0AC9283814080073
:1001B2008316031387100710081288120813881376
:1001C200831287100710881308138812081206205A
:1001D200062006208816081687140320871006209A
:1001E2008714032087100620871403208710062017
:1001F2000812871403208710062087140320871013
:10020200881288178714032087100620881308167F
:1002120087140320871008128714032087100620F2
:1002220087140320871008168714032087100620DE
:1002320008128714032087108817081788160816D3
:0C024200871403208710062038140800E1
:10024E00FF3083120313B300FF30B400FF30B5004C
:10025E00FF309F01C0309F042009F0007008831604
:0C026E009F051F179F1783121F14080024
:10027A0083120313F801F9011030FC00710DF80D17
:10028A00F90D7408F8027508031C750FF9020318B2
:10029A0055297408F80775080318750FF90703102C
:0A02AA00F00DF10DFC0B43290800D4
:1002B4006A208A110A128000840AB90A0319BA0A48
:0802C400F003031D5A29080094
:1002CC00F0212721D9200130C0001A200C30C000A9
:1002DC001A200130BB000630BC002C30BD00992028
:1002EC000230BB000230BC002130BD009920FF3031
:1002FC00831685008312BB01712070088312B6002F
:10030C007108B700CB30C0001A20E830F40003307D
:10031C00F5003608F0003708F1003D213030700749
:10032C00BF0062206430F4000030F5003608F000A5
:10033C003708F1003D210A30F4000030F5003D2172
:10034C007808F0007908F10030307007BF006220A7
:10035C000A30F4000030F5003608F0003708F100E0
:10036C003D210A30F4000030F5003D217808F00002
:10037C007908F10030307007BF0062200A30F400B9
:10038C000030F5003608F0003708F1003D21780800
:10039C00F0007908F10030307007BF00622080292E
:0203AC00D62950
:1003E00020308400133083120313F000DC30B90096
:0803F0000130BA005A21080097
:0203B8000F3400
:1003BA004134443443345F344434613474346134F2
:0603CA0031343A34003426
:0E03D000533441344E344B34453454340034ED
:02400E000A2F77
:00000001FF
